:100000000C9462000C948A000C948A000C948A0070
:100010000C948A000C948A000C948A000C948A0038
:100020000C948A000C948A000C948A000C948A0028
:100030000C948A000C948A000C948A000C948A0018
:100040000C94E6010C948A000C9456020C94300235
:100050000C948A000C948A000C948A000C948A00F8
:100060000C948A000C948A000000000023002600F3
:10007000290000000008000201000003040700003E
:1000800000000000000000000000250028002B00F8
:1000900000000000240027002A00040404040404D3
:1000A0000404020202020202030303030303010227
:1000B00004081020408001020408102001020408F6
:1000C0001020D10311241FBECFEFD8E0DEBFCDBF7B
:1000D00011E0A0E0B1E0ECE0F8E002C005900D9284
:1000E000A233B107D9F721E0A2E3B1E001C01D922C
:1000F000A83DB207E1F710E0C2E6D0E004C02197C6
:10010000FE010E94FE03C136D107C9F70E94880292
:100110000C9404040C940000CF93DF9390E0FC0156
:10012000E255FF4F249186569F4FFC01849188230E
:10013000C1F090E0880F991FFC01E057FF4FC59177
:10014000D491FC01EA57FF4FA591B4919FB7F89461
:100150008881E22FE0958E2388838C91E823EC93AD
:100160009FBFDF91CF9108953FB7F8948091D4015C
:100170009091D501A091D601B091D70126B5A89B49
:1001800005C02F3F19F00196A11DB11D3FBFBA2F29
:10019000A92F982F8827BC01CD01620F711D811DE9
:1001A000911D42E0660F771F881F991F4A95D1F76E
:1001B0000895AF92BF92CF92DF92EF92FF920F938A
:1001C0001F93CF93DF936C017B018B01040F151FED
:1001D000EB015E01AE18BF08C017D10759F0699155
:1001E000D601ED91FC910190F081E02DC6010995B9
:1001F000892B79F7C501DF91CF911F910F91FF9066
:10020000EF90DF90CF90BF90AF900895FC01538D99
:10021000448D252F30E0842F90E0821B930B5417E0
:1002200010F0CF96089501970895FC01918D828D6D
:10023000981761F0A28DAE0FBF2FB11D5D968C9106
:10024000928D9F5F9F73928F90E008958FEF9FEF45
:100250000895FC01918D828D981731F0828DE80F01
:10026000F11D858D90E008958FEF9FEF0895FC01BB
:10027000918D228D892F90E0805C9F4F821B910988
:100280008F739927089582E391E00E94370121E05E
:10029000892B09F420E0822F089580E090E0892BDB
:1002A00029F00E94430181110C9400000895FC0183
:1002B000A48DA80FB92FB11DA35ABF4F2C91848DC7
:1002C00090E001968F739927848FA689B7892C9324
:1002D000A089B1898C91837080648C93938D848D77
:1002E000981306C00288F389E02D80818F7D80837A
:1002F0000895EF92FF920F931F93CF93DF93EC013A
:1003000081E0888F9B8D8C8D98131AC0E889F989BC
:10031000808185FF15C09FB7F894EE89FF896083BF
:10032000E889F98980818370806480839FBF81E040
:1003300090E0DF91CF911F910F91FF90EF90089582
:10034000F62E0B8D10E00F5F1F4F0F731127E02E5D
:100350008C8D8E110CC00FB607FCFACFE889F98995
:10036000808185FFF5CFCE010E945701F1CFEB8D43
:10037000EC0FFD2FF11DE35AFF4FF0829FB7F89469
:100380000B8FEA89FB8980818062CFCFCF93DF9387
:10039000EC01888D8823B9F0AA89BB89E889F9899D
:1003A0008C9185FD03C0808186FD0DC00FB607FCD2
:1003B000F7CF8C9185FFF2CF808185FFEDCFCE0105
:1003C0000E945701E9CFDF91CF9108951F920F92BC
:1003D0000FB60F9211242F933F938F939F93AF9358
:1003E000BF938091D0019091D101A091D201B091A1
:1003F000D3013091CF0123E0230F2D3758F501961B
:10040000A11DB11D2093CF018093D0019093D10104
:10041000A093D201B093D3018091D4019091D501E2
:10042000A091D601B091D7010196A11DB11D809375
:10043000D4019093D501A093D601B093D701BF9179
:10044000AF919F918F913F912F910F900FBE0F9081
:100450001F90189526E8230F0296A11DB11DD2CF3B
:100460001F920F920FB60F9211242F933F934F9329
:100470005F936F937F938F939F93AF93BF93EF930C
:10048000FF9382E391E00E945701FF91EF91BF91AA
:10049000AF919F918F917F916F915F914F913F911C
:1004A0002F910F900FBE0F901F9018951F920F92D3
:1004B0000FB60F9211242F938F939F93EF93FF9377
:1004C000E0914201F09143018081E0914801F09177
:1004D000490182FD1BC0908180914B018F5F8F731A
:1004E00020914C01821741F0E0914B01F0E0EE5C6D
:1004F000FE4F958F80934B01FF91EF919F918F91CC
:100500002F910F900FBE0F901F9018958081F4CF00
:10051000CF93DF93CDB7DEB72C970FB6F894DEBF3D
:100520000FBECDBF789484B5826084BD84B58160F0
:1005300084BD85B5826085BD85B5816085BD8091AE
:100540006E00816080936E00109281008091810026
:10055000826080938100809181008160809381001E
:10056000809180008160809380008091B1008460E0
:100570008093B1008091B00081608093B000809141
:100580007A00846080937A0080917A008260809300
:100590007A0080917A00816080937A0080917A005D
:1005A000806880937A001092C10082E00E948C00E3
:1005B00083E00E948C0084E00E948C00E091420164
:1005C000F091430182E08083E0913E01F0913F0190
:1005D0001082E0914001F09141018FEC80831092F4
:1005E0004A01E0914601F091470186E08083E09165
:1005F0004401F0914501808180618083E091440154
:10060000F0914501808188608083E0914401F09100
:100610004501808180688083E0914401F09145012B
:1006200080818F7D808300E010E086E0E0E0F1E0F3
:10063000DE01179601900D928A95E1F786E0E6E0DB
:10064000F1E0DE01119601900D928A95E1F7DE014D
:10065000179630E020E08D919D919927FC01EE588E
:10066000FF4F4491FC01E255FF4F5491FC01E656C7
:10067000FF4FE491EE2309F48DC0442359F0433039
:1006800009F471C008F064C0413009F472C042300E
:1006900009F473C0F0E0EE0FFF1FE859FF4F85919A
:1006A0009491FC018081582309F474C0220F331FF8
:1006B000E1E0F0E0EC0FFD1FE20FF31F60817181BC
:1006C0006115710561F0FB0101900020E9F7319798
:1006D000AF01461B570B82E391E00E94D90042E034
:1006E00050E06EE171E082E391E00E94D9000E9447
:1006F000B4004B015C0188EEC82E83E0D82EE12CBB
:10070000F12C0E94B400681979098A099B09683E96
:10071000734081059105A8F3F1E0CF1AD108E108F3
:10072000F10828EE820E23E0921EA11CB11CC11418
:10073000D104E104F10429F70115110509F475CF7D
:100740000E944301882309F470CF0E9400006DCFFE
:100750004730B1F04830D1F0443009F09BCF809160
:1007600080008F7D03C0809180008F778093800010
:1007700091CF84B58F7784BD8DCF84B58F7DFBCF2E
:100780008091B0008F778093B00084CF8091B000CB
:100790008F7DF9CF2F5F3F4F2330310509F05BCFBD
:1007A000CBCFE2E3F1E01382128288EE93E0A0E087
:1007B000B0E084839583A683B78380E191E0918341
:1007C000808385EC90E09587848784EC90E0978720
:1007D000868780EC90E0918B808B81EC90E0938B0E
:1007E000828B82EC90E0958B848B86EC90E0978BEB
:1007F000868B118E128E138E148E0895EE0FFF1FAE
:0C0800000590F491E02D0994F894FFCFCE
:10080C000200030004002101250129010000000061
:10081C007901D9000601C6013701150129010D0A1C
:10082C000073696D006E616F006E616F5F73656957
:02083C000000BA
:00000001FF
